{"contracts/FlashLoanArbitrage.sol":{"FlashLoanArbitrage":{"abi":[{"inputs":[{"internalType":"address","name":"_lendingPool","type":"address"},{"internalType":"address","name":"_feeCollector","type":"address"}],"stateMutability":"nonpayable","type":"constructor"},{"inputs":[{"internalType":"address","name":"owner","type":"address"}],"name":"OwnableInvalidOwner","type":"error"},{"inputs":[{"internalType":"address","name":"account","type":"address"}],"name":"OwnableUnauthorizedAccount","type":"error"},{"inputs":[],"name":"ReentrancyGuardReentrantCall","type":"error"},{"inputs":[{"internalType":"address","name":"token","type":"address"}],"name":"SafeERC20FailedOperation","type":"error"},{"anonymous":false,"inputs":[{"indexed":true,"internalType":"address","name":"tokenIn","type":"address"},{"indexed":true,"internalType":"address","name":"tokenOut","type":"address"},{"indexed":false,"internalType":"uint256","name":"amountBorrowed","type":"uint256"},{"indexed":false,"internalType":"uint256","name":"profit","type":"uint256"},{"indexed":false,"internalType":"string","name":"buyDex","type":"string"},{"indexed":false,"internalType":"string","name":"sellDex","type":"string"}],"name":"ArbitrageExecuted","type":"event"},{"anonymous":false,"inputs":[{"indexed":true,"internalType":"address","name":"previousOwner","type":"address"},{"indexed":true,"internalType":"address","name":"newOwner","type":"address"}],"name":"OwnershipTransferred","type":"event"},{"anonymous":false,"inputs":[{"indexed":true,"internalType":"address","name":"token","type":"address"},{"indexed":false,"internalType":"uint256","name":"amount","type":"uint256"},{"indexed":true,"internalType":"address","name":"to","type":"address"}],"name":"ProfitWithdrawn","type":"event"},{"inputs":[],"name":"FEE_BPS","outputs":[{"internalType":"uint256","name":"","type":"uint256"}],"stateMutability":"view","type":"function"},{"inputs":[],"name":"FEE_COLLECTOR","outputs":[{"internalType":"address","name":"","type":"address"}],"stateMutability":"view","type":"function"},{"inputs":[],"name":"LENDING_POOL","outputs":[{"internalType":"contract ILendingPool","name":"","type":"address"}],"stateMutability":"view","type":"function"},{"inputs":[],"name":"SUSHISWAP_ROUTER","outputs":[{"internalType":"address","name":"","type":"address"}],"stateMutability":"view","type":"function"},{"inputs":[],"name":"UNISWAP_V2_ROUTER","outputs":[{"internalType":"address","name":"","type":"address"}],"stateMutability":"view","type":"function"},{"inputs":[],"name":"USDC","outputs":[{"internalType":"address","name":"","type":"address"}],"stateMutability":"view","type":"function"},{"inputs":[],"name":"WETH","outputs":[{"internalType":"address","name":"","type":"address"}],"stateMutability":"view","type":"function"},{"inputs":[{"internalType":"address","name":"token","type":"address"},{"internalType":"uint256","name":"amount","type":"uint256"}],"name":"emergencyWithdraw","outputs":[],"stateMutability":"nonpayable","type":"function"},{"inputs":[{"internalType":"address","name":"tokenIn","type":"address"},{"internalType":"address","name":"tokenOut","type":"address"},{"internalType":"uint256","name":"amountIn","type":"uint256"},{"internalType":"string","name":"buyDex","type":"string"},{"internalType":"string","name":"sellDex","type":"string"}],"name":"estimateArbitrageProfit","outputs":[{"internalType":"uint256","name":"estimatedProfit","type":"uint256"},{"internalType":"uint256","name":"flashLoanFee","type":"uint256"}],"stateMutability":"view","type":"function"},{"inputs":[{"internalType":"address[]","name":"assets","type":"address[]"},{"internalType":"uint256[]","name":"amounts","type":"uint256[]"},{"internalType":"uint256[]","name":"premiums","type":"uint256[]"},{"internalType":"address","name":"initiator","type":"address"},{"internalType":"bytes","name":"params","type":"bytes"}],"name":"executeOperation","outputs":[{"internalType":"bool","name":"","type":"bool"}],"stateMutability":"nonpayable","type":"function"},{"inputs":[{"internalType":"address","name":"token","type":"address"}],"name":"getBalance","outputs":[{"internalType":"uint256","name":"","type":"uint256"}],"stateMutability":"view","type":"function"},{"inputs":[],"name":"owner","outputs":[{"internalType":"address","name":"","type":"address"}],"stateMutability":"view","type":"function"},{"inputs":[],"name":"renounceOwnership","outputs":[],"stateMutability":"nonpayable","type":"function"},{"inputs":[{"internalType":"address","name":"asset","type":"address"},{"internalType":"uint256","name":"amount","type":"uint256"},{"internalType":"bytes","name":"params","type":"bytes"}],"name":"startArbitrage","outputs":[],"stateMutability":"nonpayable","type":"function"},{"inputs":[{"internalType":"address","name":"newOwner","type":"address"}],"name":"transferOwnership","outputs":[],"stateMutability":"nonpayable","type":"function"},{"inputs":[{"internalType":"address","name":"token","type":"address"}],"name":"withdrawProfit","outputs":[],"stateMutability":"nonpayable","type":"function"}],"evm":{"bytecode":{"linkReferences":{},"object":"60c034620001a65762001aea90601f38839003908101601f19168201906001600160401b03821183831017620001ab5780839160409586948552833981010312620001a6576200005d60206200005583620001c1565b9201620001c1565b90600160005533156200018e5760018054336001600160a01b0319821681179092558451926001600160a01b0392839283167f8be0079c531659141344cd1fd0a4f28419497f9722a3daafe3b4186f6b6457e0600080a3169182156200014c5750821615620001085760805260a052516119139081620001d782396080518181816102c4015281816104080152818161058301526107d5015260a0518181816109190152610bfe0152f35b825162461bcd60e51b815260206004820152601d60248201527f496e76616c69642066656520636f6c6c6563746f7220616464726573730000006044820152606490fd5b62461bcd60e51b815260206004820152601c60248201527f496e76616c6964206c656e64696e6720706f6f6c2061646472657373000000006044820152606490fd5b8251631e4fbdf760e01b815260006004820152602490fd5b600080fd5b634e487b7160e01b600052604160045260246000fd5b51906001600160a01b0382168203620001a65756fe6080604052600436101561001257600080fd5b6000803560e01c806324e262411461108c578063277754ed1461105d578063715018a61461100057806373fb0e7214610c2d5780637f660b0114610be857806389a3027114610bb95780638da5cb5b14610b90578063920f5c84146104d657806395ccea6714610495578063a82ed9ec14610466578063ad5c464814610437578063b4dcfc77146103f2578063bf333f2c146103d6578063cca2e3cc146101f4578063f2fde38b146101645763f8b2cb4f146100cd57600080fd5b346101615760209081600319360112610161576024826001600160a01b036100f36111a0565b16604051928380926370a0823160e01b82523060048301525afa9182156101555791610123575b50604051908152f35b90508181813d831161014e575b61013a81836112eb565b8101031261014957513861011a565b600080fd5b503d610130565b604051903d90823e3d90fd5b80fd5b50346101615760203660031901126101615761017e6111a0565b610186611227565b6001600160a01b039081169081156101db57600154826bffffffffffffffffffffffff60a01b821617600155167f8be0079c531659141344cd1fd0a4f28419497f9722a3daafe3b4186f6b6457e0600080a380f35b604051631e4fbdf760e01b815260048101849052602490fd5b5034610161576003196060368201126103d25761020f6111a0565b6001600160401b03906024356044358381116103ce576102339036906004016111ca565b94909260028754146103bc57869360028555610250841515611253565b60405161025c816112d0565b600181526020908136818301376102728161130c565b6001600160a01b0394851690526040519561028c876112d0565b6001875282368189013761029f8761130c565b52604051936102ad856112d0565b60018552823681870137876102c18661130c565b527f00000000000000000000000000000000000000000000000000000000000000001694853b156103b857896103359a8995610345610325986040519e8f9c8d9b8c9963ab9c4b5d60e01b8b523060048c015260e060248c015260e48b019061133f565b90888a83030160448b015261137c565b908688830301606489015261137c565b933060848701528585030160a486015281845285840137848482840101528460c4840152601f8019910116010301925af180156103ad57610389575b826001815580f35b8111610399576040523880610381565b634e487b7160e01b82526041600452602482fd5b6040513d85823e3d90fd5b8780fd5b604051633ee5aeb560e01b8152600490fd5b8580fd5b5080fd5b50346101615780600319360112610161576020604051600a8152f35b50346101615780600319360112610161576040517f00000000000000000000000000000000000000000000000000000000000000006001600160a01b03168152602090f35b50346101615780600319360112610161576020604051737b79995e5f793a07bc00c21412e50ecae098e7f98152f35b50346101615780600319360112610161576020604051737a250d5630b4cf539739df2c5dacb4c659f2488d8152f35b5034610161576040366003190112610161576104d36104b26111a0565b6104ba611227565b600154602435916001600160a01b0391821691166114b0565b80f35b50346101615760a0366003190112610161576004356001600160401b0381116103d2576105079036906004016111f7565b906024356001600160401b038111610b8c576105279036906004016111f7565b92906044356001600160401b0381116103ce576105489036906004016111f7565b93606435939091906001600160a01b03851685036103b8576001600160401b03608435116103b85761057f366084356004016111ca565b90957f00000000000000000000000000000000000000000000000000000000000000006001600160a01b03163303610b4757306001600160a01b0390911603610b0e576020868281010312610a225785356001600160401b038111610b0a5760a08188018389010312610b0a57604051968760a08101106001600160401b0360a08a011117610af65760a0880160405261061a8282016111b6565b885261062a6020838301016111b6565b60208901526001600160401b036040838301013511610af2576106578184018383016040810135016113f6565b604089015260608282010135926001600160401b038411610aee5760809361068591830190848401016113f6565b60608901520101356080860152159485610ada576106a283611414565b9615610ada576040516370a0823160e01b81523060048201526020816024816001600160a01b038c165afa908115610a2e578991610aa8575b50602086015160408701516106fc918735906001600160a01b03168b611599565b8015610a7157602087015160608801516107229290918b906001600160a01b0316611599565b15610a39576040516370a0823160e01b815230600482015297602090899060249082906001600160a01b03165afa978815610a2e5789986109f6575b5087106109b1571561099d5761077690358335611428565b938486111561095857610789858761144b565b600a810290808204600a1490151715610944576127109004806108fe575b506108ea576001600160a01b03906107be90611414565b60405163095ea7b360e01b81526001600160a01b037f00000000000000000000000000000000000000000000000000000000000000001660048201526024810186905291602091839160449183918b91165af180156108df577f517c2a7bc6057bacf49570064fabec535c8115d47b3eb6011eccba4fa9ca8c62949596506108b0575b50815160208301516001600160a01b03908116969116946108a291610866919061144b565b9261089460606040830151920151916040519586953586526020860152608060408601526080850190611470565b908382036060850152611470565b0390a3602060405160018152f35b6108d19060203d6020116108d8575b6108c981836112eb565b810190611458565b5038610841565b503d6108bf565b6040513d88823e3d90fd5b634e487b7160e01b86526032600452602486fd5b87915061093e906001600160a01b0361091685611414565b167f0000000000000000000000000000000000000000000000000000000000000000906114b0565b386107a7565b634e487b7160e01b88526011600452602488fd5b60405162461bcd60e51b815260206004820152601860248201527f417262697472616765206e6f742070726f66697461626c6500000000000000006044820152606490fd5b634e487b7160e01b87526032600452602487fd5b60405162461bcd60e51b815260206004820152601a60248201527f41726269747261676520726573756c74656420696e206c6f73730000000000006044820152606490fd5b9097506020813d602011610a26575b81610a12602093836112eb565b81010312610a225751963861075e565b8880fd5b3d9150610a05565b6040513d8b823e3d90fd5b60405162461bcd60e51b815260206004820152601060248201526f14d95b1b081cddd85c0819985a5b195960821b6044820152606490fd5b60405162461bcd60e51b815260206004820152600f60248201526e109d5e481cddd85c0819985a5b1959608a1b6044820152606490fd5b90506020813d602011610ad2575b81610ac3602093836112eb565b81010312610a225751386106db565b3d9150610ab6565b634e487b7160e01b88526032600452602488fd5b8b80fd5b8a80fd5b634e487b7160e01b8b52604160045260248bfd5b8980fd5b60405162461bcd60e51b815260206004820152601160248201527024b73b30b634b21034b734ba34b0ba37b960791b6044820152606490fd5b60405162461bcd60e51b815260206004820152601b60248201527f43616c6c6572206d757374206265206c656e64696e6720706f6f6c00000000006044820152606490fd5b8380fd5b50346101615780600319360112610161576001546040516001600160a01b039091168152602090f35b503461016157806003193601126101615760206040517394a9d9ac8a22534e3faca9f4e7f2e2cf85d5e4c88152f35b50346101615780600319360112610161576040517f00000000000000000000000000000000000000000000000000000000000000006001600160a01b03168152602090f35b50346101615760a036600319011261016157610c476111a0565b6001600160a01b039082906024358381169190829003610ffc57604435916001600160401b03916064358381116103ce57610c869036906004016111ca565b9190608435948511610ff857610ca1879536906004016111ca565b97909160405190610cb18261129f565b6002825260209a6040368d850137610cc88361130c565b951680955286610cd78361132f565b528295610ce53682846113b0565b8c8151910120610cf361154f565b8051908e012003610f62575050610d2f929394506040518093819263d06ca61f60e01b83528a600484015260406024840152604483019061133f565b0381737a250d5630b4cf539739df2c5dacb4c659f2488d5afa8015610f5757610d5f918691610f43575b5061132f565b51915b60405193610d6f8561129f565b600285526040368a870137610d838561130c565b52610d8d8461132f565b528395610d9b3682846113b0565b888151910120610da961154f565b8051908a012003610eae575050610de4939450604051938492839263d06ca61f60e01b8452600484015260406024840152604483019061133f565b0381737a250d5630b4cf539739df2c5dacb4c659f2488d5afa8015610ea357610e13918591610e81575061132f565b51905b6005810281810460051482151715610e6d579361271060409504928391610e3d8385611428565b821115610e635750610e5792610e529161144b565b61144b565b915b8351928352820152f35b9250505091610e59565b634e487b7160e01b85526011600452602485fd5b610e9d91503d8087833e610e9581836112eb565b810190611829565b38610d59565b6040513d86823e3d90fd5b90610eba9136916113b0565b868151910120610ec8611574565b87815191012014610edc575b505050610e16565b610f0a939450604051938492839263d06ca61f60e01b8452600484015260406024840152604483019061133f565b038173d9e1ce17f2641f24ae83637ab66a2cca9c378b9f5afa8015610ea357610f39918591610e81575061132f565b5190833880610ed4565b610e9d91503d8088833e610e9581836112eb565b6040513d87823e3d90fd5b90610f719195949536916113b0565b8a8151910120610f7f611574565b8b815191012014610f92575b5050610d62565b610fc09294506040518093819263d06ca61f60e01b83528a600484015260406024840152604483019061133f565b038173d9e1ce17f2641f24ae83637ab66a2cca9c378b9f5afa8015610f5757610fef918691610f43575061132f565b51918438610f8b565b8680fd5b8280fd5b5034610161578060031936011261016157611019611227565b600180546001600160a01b0319811690915581906001600160a01b03167f8be0079c531659141344cd1fd0a4f28419497f9722a3daafe3b4186f6b6457e08280a380f35b5034610161578060031936011261016157602060405173d9e1ce17f2641f24ae83637ab66a2cca9c378b9f8152f35b5034610161576020806003193601126103d2576110a76111a0565b906110b0611227565b6040516370a0823160e01b8152306004820152916001600160a01b0390811691908184602481865afa938415610f5757859461116d575b50831561112f579081611120857fe6fee221bb8a85476104e6b67ae7b66010866c78f60f8ce4946f80da6ce04df09460015416866114b0565b6001541693604051908152a380f35b60405162461bcd60e51b81526004810183905260166024820152754e6f2062616c616e636520746f20776974686472617760501b6044820152606490fd5b9093508181813d8311611199575b61118581836112eb565b81010312611195575192386110e7565b8480fd5b503d61117b565b600435906001600160a01b038216820361014957565b35906001600160a01b038216820361014957565b9181601f84011215610149578235916001600160401b038311610149576020838186019501011161014957565b9181601f84011215610149578235916001600160401b038311610149576020808501948460051b01011161014957565b6001546001600160a01b0316330361123b57565b60405163118cdaa760e01b8152336004820152602490fd5b1561125a57565b60405162461bcd60e51b815260206004820152601d60248201527f416d6f756e74206d7573742062652067726561746572207468616e20300000006044820152606490fd5b606081019081106001600160401b038211176112ba57604052565b634e487b7160e01b600052604160045260246000fd5b604081019081106001600160401b038211176112ba57604052565b90601f801991011681019081106001600160401b038211176112ba57604052565b8051156113195760200190565b634e487b7160e01b600052603260045260246000fd5b8051600110156113195760400190565b90815180825260208080930193019160005b82811061135f575050505090565b83516001600160a01b031685529381019392810192600101611351565b90815180825260208080930193019160005b82811061139c575050505090565b83518552938101939281019260010161138e565b9291926001600160401b0382116112ba57604051916113d9601f8201601f1916602001846112eb565b829481845281830111610149578281602093846000960137010152565b9080601f8301121561014957816020611411933591016113b0565b90565b356001600160a01b03811681036101495790565b9190820180921161143557565b634e487b7160e01b600052601160045260246000fd5b9190820391821161143557565b90816020910312610149575180151581036101495790565b919082519283825260005b84811061149c575050826000602080949584010152601f8019910116010190565b60208183018101518483018201520161147b565b60405163a9059cbb60e01b60208083019182526001600160a01b0394909416602483015260448083019590955293815290926000916114f06064826112eb565b519082855af115611543576000513d61153a57506001600160a01b0381163b155b6115185750565b604051635274afe760e01b81526001600160a01b039091166004820152602490fd5b60011415611511565b6040513d6000823e3d90fd5b6040519061155c826112d0565b60098252682ab734b9bbb0b82b1960b91b6020830152565b60405190611581826112d0565b600982526805375736869537761760bc1b6020830152565b939290916115a8811515611253565b60409283516115b68161129f565b600281526020918536848401376115cc8261130c565b6001600160a01b0398891690819052976115e58361132f565b9116905261012c4201938442116114355780519083810191822061160761154f565b8051908601200361176f57505084519163095ea7b360e01b8352737a250d5630b4cf539739df2c5dacb4c659f2488d9283600482015284602482015281816044816000809d5af1801561176557611747575b5050845163d06ca61f60e01b8152836004820152856024820152878180611683604482018661133f565b0381865afa90811561173d57906116a0918991611729575061132f565b51926103e393848102948186041490151715610944579087809493926116e28851978896879586946338ed173960e01b86526103e830930490600487016118a4565b03925af1918215611720575083611701939492611705575b505061132f565b5190565b61171992503d8091833e610e9581836112eb565b38806116fa565b513d85823e3d90fd5b610e9d91503d808b833e610e9581836112eb565b86513d8a823e3d90fd5b8161175d92903d106108d8576108c981836112eb565b503880611659565b87513d8b823e3d90fd5b51902061177a611574565b805190840120036117f35784519163095ea7b360e01b835273d9e1ce17f2641f24ae83637ab66a2cca9c378b9f9283600482015284602482015281816044816000809d5af1801561176557611747575050845163d06ca61f60e01b8152836004820152856024820152878180611683604482018661133f565b845162461bcd60e51b815260048101839052600f60248201526e0aadce6eae0e0dee4e8cac840888ab608b1b6044820152606490fd5b9060209081838203126101495782516001600160401b0393848211610149570181601f820112156101495780519384116112ba578360051b9060405194611872858401876112eb565b85528380860192820101928311610149578301905b828210611895575050505090565b81518152908301908301611887565b91926080936118c992979695978452602084015260a0604084015260a083019061133f565b6001600160a01b039095166060820152015256fea2646970667358221220df8be783902ef84fc113e84a3580501645e56b41b76e654ec17c38fd287cea2f64736f6c63430008140033","opcodes":"PUSH1 0xC0 CALLVALUE PUSH3 0x1A6 JUMPI PUSH3 0x1AEA SWAP1 PUSH1 0x1F CODESIZE DUP4 SWAP1 SUB SWAP1 DUP2 ADD PUSH1 0x1F NOT AND DUP3 ADD SWAP1 PUSH1 0x1 PUSH1 0x1 PUSH1 0x40 SHL SUB DUP3 GT DUP4 DUP4 LT OR PUSH3 0x1AB JUMPI DUP1 DUP4 SWAP2 PUSH1 0x40 SWAP6 DUP7 SWAP5 DUP6 MSTORE DUP4 CODECOPY DUP2 ADD SUB SLT PUSH3 0x1A6 JUMPI PUSH3 0x5D PUSH1 0x20 PUSH3 0x55 DUP4 PUSH3 0x1C1 JUMP JUMPDEST SWAP3 ADD PUSH3 0x1C1 JUMP JUMPDEST SWAP1 PUSH1 0x1 PUSH1 0x0 SSTORE CALLER ISZERO PUSH3 0x18E JUMPI PUSH1 0x1 DUP1 SLOAD CALLER PUSH1 0x1 PUSH1 0x1 PUSH1 0xA0 SHL SUB NOT DUP3 AND DUP2 OR SWAP1 SWAP3 SSTORE DUP5 MLOAD SWAP3 PUSH1 0x1 PUSH1 0x1 PUSH1 0xA0 SHL SUB SWAP3 DUP4 SWAP3 DUP4 AND PUSH32 0x8BE0079C531659141344CD1FD0A4F28419497F9722A3DAAFE3B4186F6B6457E0 PUSH1 0x0 DUP1 LOG3 AND SWAP2 DUP3 ISZERO PUSH3 0x14C JUMPI POP DUP3 AND ISZERO PUSH3 0x108 JUMPI PUSH1 0x80 MSTORE PUSH1 0xA0 MSTORE MLOAD PUSH2 0x1913 SWAP1 DUP2 PUSH3 0x1D7 DUP3 CODECOPY PUSH1 0x80 MLOAD DUP2 DUP2 DUP2 PUSH2 0x2C4 ADD MSTORE DUP2 DUP2 PUSH2 0x408 ADD MSTORE DUP2 DUP2 PUSH2 0x583 ADD MSTORE PUSH2 0x7D5 ADD MSTORE PUSH1 0xA0 MLOAD DUP2 DUP2 DUP2 PUSH2 0x919 ADD MSTORE PUSH2 0xBFE ADD MSTORE RETURN JUMPDEST DUP3 MLOAD PUSH3 0x461BCD PUSH1 0xE5 SHL DUP2 MSTORE PUSH1 0x20 PUSH1 0x4 DUP3 ADD MSTORE PUSH1 0x1D PUSH1 0x24 DUP3 ADD MSTORE PUSH32 0x496E76616C69642066656520636F6C6C6563746F722061646472657373000000 PUSH1 0x44 DUP3 ADD MSTORE PUSH1 0x64 SWAP1 REVERT JUMPDEST PUSH3 0x461BCD PUSH1 0xE5 SHL DUP2 MSTORE PUSH1 0x20 PUSH1 0x4 DUP3 ADD MSTORE PUSH1 0x1C PUSH1 0x24 DUP3 ADD MSTORE PUSH32 0x496E76616C6964206C656E64696E6720706F6F6C206164647265737300000000 PUSH1 0x44 DUP3 ADD MSTORE PUSH1 0x64 SWAP1 REVERT JUMPDEST DUP3 MLOAD PUSH4 0x1E4FBDF7 PUSH1 0xE0 SHL DUP2 MSTORE PUSH1 0x0 PUSH1 0x4 DUP3 ADD MSTORE PUSH1 0x24 SWAP1 REVERT JUMPDEST PUSH1 0x0 DUP1 REVERT JUMPDEST PUSH4 0x4E487B71 PUSH1 0xE0 SHL PUSH1 0x0 MSTORE PUSH1 0x41 PUSH1 0x4 MSTORE PUSH1 0x24 PUSH1 0x0 REVERT JUMPDEST MLOAD SWAP1 PUSH1 0x1 PUSH1 0x1 PUSH1 0xA0 SHL SUB DUP3 AND DUP3 SUB PUSH3 0x1A6 JUMPI JUMP INVALID PUSH1 0x80 PUSH1 0x40 MSTORE PUSH1 0x4 CALLDATASIZE LT ISZERO PUSH2 0x12 JUMPI PUSH1 0x0 DUP1 REVERT JUMPDEST PUSH1 0x0 DUP1 CALLDATALOAD PUSH1 0xE0 SHR DUP1 PUSH4 0x24E26241 EQ PUSH2 0x108C JUMPI DUP1 PUSH4 0x277754ED EQ PUSH2 0x105D JUMPI DUP1 PUSH4 0x715018A6 EQ PUSH2 0x1000 JUMPI DUP1 PUSH4 0x73FB0E72 EQ PUSH2 0xC2D JUMPI DUP1 PUSH4 0x7F660B01 EQ PUSH2 0xBE8 JUMPI DUP1 PUSH4 0x89A30271 EQ PUSH2 0xBB9 JUMPI DUP1 PUSH4 0x8DA5CB5B EQ PUSH2 0xB90 JUMPI DUP1 PUSH4 0x920F5C84 EQ PUSH2 0x4D6 JUMPI DUP1 PUSH4 0x95CCEA67 EQ PUSH2 0x495 JUMPI DUP1 PUSH4 0xA82ED9EC EQ PUSH2 0x466 JUMPI DUP1 PUSH4 0xAD5C4648 EQ PUSH2 0x437 JUMPI DUP1 PUSH4 0xB4DCFC77 EQ PUSH2 0x3F2 JUMPI DUP1 PUSH4 0xBF333F2C EQ PUSH2 0x3D6 JUMPI DUP1 PUSH4 0xCCA2E3CC EQ PUSH2 0x1F4 JUMPI DUP1 PUSH4 0xF2FDE38B EQ PUSH2 0x164 JUMPI PUSH4 0xF8B2CB4F EQ PUSH2 0xCD JUMPI PUSH1 0x0 DUP1 REVERT JUMPDEST CALLVALUE PUSH2 0x161 JUMPI PUSH1 0x20 SWAP1 DUP2 PUSH1 0x3 NOT CALLDATASIZE ADD SLT PUSH2 0x161 JUMPI PUSH1 0x24 DUP3 PUSH1 0x1 PUSH1 0x1 PUSH1 0xA0 SHL SUB PUSH2 0xF3 PUSH2 0x11A0 JUMP JUMPDEST AND PUSH1 0x40 MLOAD SWAP3 DUP4 DUP1 SWAP3 PUSH4 0x70A08231 PUSH1 0xE0 SHL DUP3 MSTORE ADDRESS PUSH1 0x4 DUP4 ADD MSTORE GAS STATICCALL SWAP2 DUP3 ISZERO PUSH2 0x155 JUMPI SWAP2 PUSH2 0x123 JUMPI JUMPDEST POP PUSH1 0x40 MLOAD SWAP1 DUP2 MSTORE RETURN JUMPDEST SWAP1 POP DUP2 DUP2 DUP2 RETURNDATASIZE DUP4 GT PUSH2 0x14E JUMPI JUMPDEST PUSH2 0x13A DUP2 DUP4 PUSH2 0x12EB JUMP JUMPDEST DUP2 ADD SUB SLT PUSH2 0x149 JUMPI MLOAD CODESIZE PUSH2 0x11A JUMP JUMPDEST PUSH1 0x0 DUP1 REVERT JUMPDEST POP RETURNDATASIZE PUSH2 0x130 JUMP JUMPDEST PUSH1 0x40 MLOAD SWAP1 RETURNDATASIZE SWAP1 DUP3 RETURNDATACOPY RETURNDATASIZE SWAP1 REVERT JUMPDEST DUP1 REVERT JUMPDEST POP CALLVALUE PUSH2 0x161 JUMPI PUSH1 0x20 CALLDATASIZE PUSH1 0x3 NOT ADD SLT PUSH2 0x161 JUMPI PUSH2 0x17E PUSH2 0x11A0 JUMP JUMPDEST PUSH2 0x186 PUSH2 0x1227 JUMP JUMPDEST PUSH1 0x1 PUSH1 0x1 PUSH1 0xA0 SHL SUB SWAP1 DUP2 AND SWAP1 DUP2 ISZERO PUSH2 0x1DB JUMPI PUSH1 0x1 SLOAD DUP3 PUSH12 0xFFFFFFFFFFFFFFFFFFFFFFFF PUSH1 0xA0 SHL DUP3 AND OR PUSH1 0x1 SSTORE AND PUSH32 0x8BE0079C531659141344CD1FD0A4F28419497F9722A3DAAFE3B4186F6B6457E0 PUSH1 0x0 DUP1 LOG3 DUP1 RETURN JUMPDEST PUSH1 0x40 MLOAD PUSH4 0x1E4FBDF7 PUSH1 0xE0 SHL DUP2 MSTORE PUSH1 0x4 DUP2 ADD DUP5 SWAP1 MSTORE PUSH1 0x24 SWAP1 REVERT JUMPDEST POP CALLVALUE PUSH2 0x161 JUMPI PUSH1 0x3 NOT PUSH1 0x60 CALLDATASIZE DUP3 ADD SLT PUSH2 0x3D2 JUMPI PUSH2 0x20F PUSH2 0x11A0 JUMP JUMPDEST PUSH1 0x1 PUSH1 0x1 PUSH1 0x40 SHL SUB SWAP1 PUSH1 0x24 CALLDATALOAD PUSH1 0x44 CALLDATALOAD DUP4 DUP2 GT PUSH2 0x3CE JUMPI PUSH2 0x233 SWAP1 CALLDATASIZE SWAP1 PUSH1 0x4 ADD PUSH2 0x11CA JUMP JUMPDEST SWAP5 SWAP1 SWAP3 PUSH1 0x2 DUP8 SLOAD EQ PUSH2 0x3BC JUMPI DUP7 SWAP4 PUSH1 0x2 DUP6 SSTORE PUSH2 0x250 DUP5 ISZERO ISZERO PUSH2 0x1253 JUMP JUMPDEST PUSH1 0x40 MLOAD PUSH2 0x25C DUP2 PUSH2 0x12D0 JUMP JUMPDEST PUSH1 0x1 DUP2 MSTORE PUSH1 0x20 SWAP1 DUP2 CALLDATASIZE DUP2 DUP4 ADD CALLDATACOPY PUSH2 0x272 DUP2 PUSH2 0x130C JUMP JUMPDEST PUSH1 0x1 PUSH1 0x1 PUSH1 0xA0 SHL SUB SWAP5 DUP6 AND SWAP1 MSTORE PUSH1 0x40 MLOAD SWAP6 PUSH2 0x28C DUP8 PUSH2 0x12D0 JUMP JUMPDEST PUSH1 0x1 DUP8 MSTORE DUP3 CALLDATASIZE DUP2 DUP10 ADD CALLDATACOPY PUSH2 0x29F DUP8 PUSH2 0x130C JUMP JUMPDEST MSTORE PUSH1 0x40 MLOAD SWAP4 PUSH2 0x2AD DUP6 PUSH2 0x12D0 JUMP JUMPDEST PUSH1 0x1 DUP6 MSTORE DUP3 CALLDATASIZE DUP2 DUP8 ADD CALLDATACOPY DUP8 PUSH2 0x2C1 DUP7 PUSH2 0x130C JUMP JUMPDEST MSTORE PUSH32 0x0 AND SWAP5 DUP6 EXTCODESIZE ISZERO PUSH2 0x3B8 JUMPI DUP10 PUSH2 0x335 SWAP11 DUP10 SWAP6 PUSH2 0x345 PUSH2 0x325 SWAP9 PUSH1 0x40 MLOAD SWAP15 DUP16 SWAP13 DUP14 SWAP12 DUP13 SWAP10 PUSH4 0xAB9C4B5D PUSH1 0xE0 SHL DUP12 MSTORE ADDRESS PUSH1 0x4 DUP13 ADD MSTORE PUSH1 0xE0 PUSH1 0x24 DUP13 ADD MSTORE PUSH1 0xE4 DUP12 ADD SWAP1 PUSH2 0x133F JUMP JUMPDEST SWAP1 DUP9 DUP11 DUP4 SUB ADD PUSH1 0x44 DUP12 ADD MSTORE PUSH2 0x137C JUMP JUMPDEST SWAP1 DUP7 DUP9 DUP4 SUB ADD PUSH1 0x64 DUP10 ADD MSTORE PUSH2 0x137C JUMP JUMPDEST SWAP4 ADDRESS PUSH1 0x84 DUP8 ADD MSTORE DUP6 DUP6 SUB ADD PUSH1 0xA4 DUP7 ADD MSTORE DUP2 DUP5 MSTORE DUP6 DUP5 ADD CALLDATACOPY DUP5 DUP5 DUP3 DUP5 ADD ADD MSTORE DUP5 PUSH1 0xC4 DUP5 ADD MSTORE PUSH1 0x1F DUP1 NOT SWAP2 ADD AND ADD SUB ADD SWAP3 GAS CALL DUP1 ISZERO PUSH2 0x3AD JUMPI PUSH2 0x389 JUMPI JUMPDEST DUP3 PUSH1 0x1 DUP2 SSTORE DUP1 RETURN JUMPDEST DUP2 GT PUSH2 0x399 JUMPI PUSH1 0x40 MSTORE CODESIZE DUP1 PUSH2 0x381 JUMP JUMPDEST PUSH4 0x4E487B71 PUSH1 0xE0 SHL DUP3 MSTORE PUSH1 0x41 PUSH1 0x4 MSTORE PUSH1 0x24 DUP3 REVERT JUMPDEST PUSH1 0x40 MLOAD RETURNDATASIZE DUP6 DUP3 RETURNDATACOPY RETURNDATASIZE SWAP1 REVERT JUMPDEST DUP8 DUP1 REVERT JUMPDEST PUSH1 0x40 MLOAD PUSH4 0x3EE5AEB5 PUSH1 0xE0 SHL DUP2 MSTORE PUSH1 0x4 SWAP1 REVERT JUMPDEST DUP6 DUP1 REVERT JUMPDEST POP DUP1 REVERT JUMPDEST POP CALLVALUE PUSH2 0x161 JUMPI DUP1 PUSH1 0x3 NOT CALLDATASIZE ADD SLT PUSH2 0x161 JUMPI PUSH1 0x20 PUSH1 0x40 MLOAD PUSH1 0xA DUP2 MSTORE RETURN JUMPDEST POP CALLVALUE PUSH2 0x161 JUMPI DUP1 PUSH1 0x3 NOT CALLDATASIZE ADD SLT PUSH2 0x161 JUMPI PUSH1 0x40 MLOAD PUSH32 0x0 PUSH1 0x1 PUSH1 0x1 PUSH1 0xA0 SHL SUB AND DUP2 MSTORE PUSH1 0x20 SWAP1 RETURN JUMPDEST POP CALLVALUE PUSH2 0x161 JUMPI DUP1 PUSH1 0x3 NOT CALLDATASIZE ADD SLT PUSH2 0x161 JUMPI PUSH1 0x20 PUSH1 0x40 MLOAD PUSH20 0x7B79995E5F793A07BC00C21412E50ECAE098E7F9 DUP2 MSTORE RETURN JUMPDEST POP CALLVALUE PUSH2 0x161 JUMPI DUP1 PUSH1 0x3 NOT CALLDATASIZE ADD SLT PUSH2 0x161 JUMPI PUSH1 0x20 PUSH1 0x40 MLOAD PUSH20 0x7A250D5630B4CF539739DF2C5DACB4C659F2488D DUP2 MSTORE RETURN JUMPDEST POP CALLVALUE PUSH2 0x161 JUMPI PUSH1 0x40 CALLDATASIZE PUSH1 0x3 NOT ADD SLT PUSH2 0x161 JUMPI PUSH2 0x4D3 PUSH2 0x4B2 PUSH2 0x11A0 JUMP JUMPDEST PUSH2 0x4BA PUSH2 0x1227 JUMP JUMPDEST PUSH1 0x1 SLOAD PUSH1 0x24 CALLDATALOAD SWAP2 PUSH1 0x1 PUSH1 0x1 PUSH1 0xA0 SHL SUB SWAP2 DUP3 AND SWAP2 AND PUSH2 0x14B0 JUMP JUMPDEST DUP1 RETURN JUMPDEST POP CALLVALUE PUSH2 0x161 JUMPI PUSH1 0xA0 CALLDATASIZE PUSH1 0x3 NOT ADD SLT PUSH2 0x161 JUMPI PUSH1 0x4 CALLDATALOAD PUSH1 0x1 PUSH1 0x1 PUSH1 0x40 SHL SUB DUP2 GT PUSH2 0x3D2 JUMPI PUSH2 0x507 SWAP1 CALLDATASIZE SWAP1 PUSH1 0x4 ADD PUSH2 0x11F7 JUMP JUMPDEST SWAP1 PUSH1 0x24 CALLDATALOAD PUSH1 0x1 PUSH1 0x1 PUSH1 0x40 SHL SUB DUP2 GT PUSH2 0xB8C JUMPI PUSH2 0x527 SWAP1 CALLDATASIZE SWAP1 PUSH1 0x4 ADD PUSH2 0x11F7 JUMP JUMPDEST SWAP3 SWAP1 PUSH1 0x44 CALLDATALOAD PUSH1 0x1 PUSH1 0x1 PUSH1 0x40 SHL SUB DUP2 GT PUSH2 0x3CE JUMPI PUSH2 0x548 SWAP1 CALLDATASIZE SWAP1 PUSH1 0x4 ADD PUSH2 0x11F7 JUMP JUMPDEST SWAP4 PUSH1 0x64 CALLDATALOAD SWAP4 SWAP1 SWAP2 SWAP1 PUSH1 0x1 PUSH1 0x1 PUSH1 0xA0 SHL SUB DUP6 AND DUP6 SUB PUSH2 0x3B8 JUMPI PUSH1 0x1 PUSH1 0x1 PUSH1 0x40 SHL SUB PUSH1 0x84 CALLDATALOAD GT PUSH2 0x3B8 JUMPI PUSH2 0x57F CALLDATASIZE PUSH1 0x84 CALLDATALOAD PUSH1 0x4 ADD PUSH2 0x11CA JUMP JUMPDEST SWAP1 SWAP6 PUSH32 0x0 PUSH1 0x1 PUSH1 0x1 PUSH1 0xA0 SHL SUB AND CALLER SUB PUSH2 0xB47 JUMPI ADDRESS PUSH1 0x1 PUSH1 0x1 PUSH1 0xA0 SHL SUB SWAP1 SWAP2 AND SUB PUSH2 0xB0E JUMPI PUSH1 0x20 DUP7 DUP3 DUP2 ADD SUB SLT PUSH2 0xA22 JUMPI DUP6 CALLDATALOAD PUSH1 0x1 PUSH1 0x1 PUSH1 0x40 SHL SUB DUP2 GT PUSH2 0xB0A JUMPI PUSH1 0xA0 DUP2 DUP9 ADD DUP4 DUP10 ADD SUB SLT PUSH2 0xB0A JUMPI PUSH1 0x40 MLOAD SWAP7 DUP8 PUSH1 0xA0 DUP2 ADD LT PUSH1 0x1 PUSH1 0x1 PUSH1 0x40 SHL SUB PUSH1 0xA0 DUP11 ADD GT OR PUSH2 0xAF6 JUMPI PUSH1 0xA0 DUP9 ADD PUSH1 0x40 MSTORE PUSH2 0x61A DUP3 DUP3 ADD PUSH2 0x11B6 JUMP JUMPDEST DUP9 MSTORE PUSH2 0x62A PUSH1 0x20 DUP4 DUP4 ADD ADD PUSH2 0x11B6 JUMP JUMPDEST PUSH1 0x20 DUP10 ADD MSTORE PUSH1 0x1 PUSH1 0x1 PUSH1 0x40 SHL SUB PUSH1 0x40 DUP4 DUP4 ADD ADD CALLDATALOAD GT PUSH2 0xAF2 JUMPI PUSH2 0x657 DUP2 DUP5 ADD DUP4 DUP4 ADD PUSH1 0x40 DUP2 ADD CALLDATALOAD ADD PUSH2 0x13F6 JUMP JUMPDEST PUSH1 0x40 DUP10 ADD MSTORE PUSH1 0x60 DUP3 DUP3 ADD ADD CALLDATALOAD SWAP3 PUSH1 0x1 PUSH1 0x1 PUSH1 0x40 SHL SUB DUP5 GT PUSH2 0xAEE JUMPI PUSH1 0x80 SWAP4 PUSH2 0x685 SWAP2 DUP4 ADD SWAP1 DUP5 DUP5 ADD ADD PUSH2 0x13F6 JUMP JUMPDEST PUSH1 0x60 DUP10 ADD MSTORE ADD ADD CALLDATALOAD PUSH1 0x80 DUP7 ADD MSTORE ISZERO SWAP5 DUP6 PUSH2 0xADA JUMPI PUSH2 0x6A2 DUP4 PUSH2 0x1414 JUMP JUMPDEST SWAP7 ISZERO PUSH2 0xADA JUMPI PUSH1 0x40 MLOAD PUSH4 0x70A08231 PUSH1 0xE0 SHL DUP2 MSTORE ADDRESS PUSH1 0x4 DUP3 ADD MSTORE PUSH1 0x20 DUP2 PUSH1 0x24 DUP2 PUSH1 0x1 PUSH1 0x1 PUSH1 0xA0 SHL SUB DUP13 AND GAS STATICCALL SWAP1 DUP2 ISZERO PUSH2 0xA2E JUMPI DUP10 SWAP2 PUSH2 0xAA8 JUMPI JUMPDEST POP PUSH1 0x20 DUP7 ADD MLOAD PUSH1 0x40 DUP8 ADD MLOAD PUSH2 0x6FC SWAP2 DUP8 CALLDATALOAD SWAP1 PUSH1 0x1 PUSH1 0x1 PUSH1 0xA0 SHL SUB AND DUP12 PUSH2 0x1599 JUMP JUMPDEST DUP1 ISZERO PUSH2 0xA71 JUMPI PUSH1 0x20 DUP8 ADD MLOAD PUSH1 0x60 DUP9 ADD MLOAD PUSH2 0x722 SWAP3 SWAP1 SWAP2 DUP12 SWAP1 PUSH1 0x1 PUSH1 0x1 PUSH1 0xA0 SHL SUB AND PUSH2 0x1599 JUMP JUMPDEST ISZERO PUSH2 0xA39 JUMPI PUSH1 0x40 MLOAD PUSH4 0x70A08231 PUSH1 0xE0 SHL DUP2 MSTORE ADDRESS PUSH1 0x4 DUP3 ADD MSTORE SWAP8 PUSH1 0x20 SWAP1 DUP10 SWAP1 PUSH1 0x24 SWAP1 DUP3 SWAP1 PUSH1 0x1 PUSH1 0x1 PUSH1 0xA0 SHL SUB AND GAS STATICCALL SWAP8 DUP9 ISZERO PUSH2 0xA2E JUMPI DUP10 SWAP9 PUSH2 0x9F6 JUMPI JUMPDEST POP DUP8 LT PUSH2 0x9B1 JUMPI ISZERO PUSH2 0x99D JUMPI PUSH2 0x776 SWAP1 CALLDATALOAD DUP4 CALLDATALOAD PUSH2 0x1428 JUMP JUMPDEST SWAP4 DUP5 DUP7 GT ISZERO PUSH2 0x958 JUMPI PUSH2 0x789 DUP6 DUP8 PUSH2 0x144B JUMP JUMPDEST PUSH1 0xA DUP2 MUL SWAP1 DUP1 DUP3 DIV PUSH1 0xA EQ SWAP1 ISZERO OR ISZERO PUSH2 0x944 JUMPI PUSH2 0x2710 SWAP1 DIV DUP1 PUSH2 0x8FE JUMPI JUMPDEST POP PUSH2 0x8EA JUMPI PUSH1 0x1 PUSH1 0x1 PUSH1 0xA0 SHL SUB SWAP1 PUSH2 0x7BE SWAP1 PUSH2 0x1414 JUMP JUMPDEST PUSH1 0x40 MLOAD PUSH4 0x95EA7B3 PUSH1 0xE0 SHL DUP2 MSTORE PUSH1 0x1 PUSH1 0x1 PUSH1 0xA0 SHL SUB PUSH32 0x0 AND PUSH1 0x4 DUP3 ADD MSTORE PUSH1 0x24 DUP2 ADD DUP7 SWAP1 MSTORE SWAP2 PUSH1 0x20 SWAP2 DUP4 SWAP2 PUSH1 0x44 SWAP2 DUP4 SWAP2 DUP12 SWAP2 AND GAS CALL DUP1 ISZERO PUSH2 0x8DF JUMPI PUSH32 0x517C2A7BC6057BACF49570064FABEC535C8115D47B3EB6011ECCBA4FA9CA8C62 SWAP5 SWAP6 SWAP7 POP PUSH2 0x8B0 JUMPI JUMPDEST POP DUP2 MLOAD PUSH1 0x20 DUP4 ADD MLOAD PUSH1 0x1 PUSH1 0x1 PUSH1 0xA0 SHL SUB SWAP1 DUP2 AND SWAP7 SWAP2 AND SWAP5 PUSH2 0x8A2 SWAP2 PUSH2 0x866 SWAP2 SWAP1 PUSH2 0x144B JUMP JUMPDEST SWAP3 PUSH2 0x894 PUSH1 0x60 PUSH1 0x40 DUP4 ADD MLOAD SWAP3 ADD MLOAD SWAP2 PUSH1 0x40 MLOAD SWAP6 DUP7 SWAP6 CALLDATALOAD DUP7 MSTORE PUSH1 0x20 DUP7 ADD MSTORE PUSH1 0x80 PUSH1 0x40 DUP7 ADD MSTORE PUSH1 0x80 DUP6 ADD SWAP1 PUSH2 0x1470 JUMP JUMPDEST SWAP1 DUP4 DUP3 SUB PUSH1 0x60 DUP6 ADD MSTORE PUSH2 0x1470 JUMP JUMPDEST SUB SWAP1 LOG3 PUSH1 0x20 PUSH1 0x40 MLOAD PUSH1 0x1 DUP2 MSTORE RETURN JUMPDEST PUSH2 0x8D1 SWAP1 PUSH1 0x20 RETURNDATASIZE PUSH1 0x20 GT PUSH2 0x8D8 JUMPI JUMPDEST PUSH2 0x8C9 DUP2 DUP4 PUSH2 0x12EB JUMP JUMPDEST DUP2 ADD SWAP1 PUSH2 0x1458 JUMP JUMPDEST POP CODESIZE PUSH2 0x841 JUMP JUMPDEST POP RETURNDATASIZE PUSH2 0x8BF JUMP JUMPDEST PUSH1 0x40 MLOAD RETURNDATASIZE DUP9 DUP3 RETURNDATACOPY RETURNDATASIZE SWAP1 REVERT JUMPDEST PUSH4 0x4E487B71 PUSH1 0xE0 SHL DUP7 MSTORE PUSH1 0x32 PUSH1 0x4 MSTORE PUSH1 0x24 DUP7 REVERT JUMPDEST DUP8 SWAP2 POP PUSH2 0x93E SWAP1 PUSH1 0x1 PUSH1 0x1 PUSH1 0xA0 SHL SUB PUSH2 0x916 DUP6 PUSH2 0x1414 JUMP JUMPDEST AND PUSH32 0x0 SWAP1 PUSH2 0x14B0 JUMP JUMPDEST CODESIZE PUSH2 0x7A7 JUMP JUMPDEST PUSH4 0x4E487B71 PUSH1 0xE0 SHL DUP9 MSTORE PUSH1 0x11 PUSH1 0x4 MSTORE PUSH1 0x24 DUP9 REVERT JUMPDEST PUSH1 0x40 MLOAD PUSH3 0x461BCD PUSH1 0xE5 SHL DUP2 MSTORE PUSH1 0x20 PUSH1 0x4 DUP3 ADD MSTORE PUSH1 0x18 PUSH1 0x24 DUP3 ADD MSTORE PUSH32 0x417262697472616765206E6F742070726F66697461626C650000000000000000 PUSH1 0x44 DUP3 ADD MSTORE PUSH1 0x64 SWAP1 REVERT JUMPDEST PUSH4 0x4E487B71 PUSH1 0xE0 SHL DUP8 MSTORE PUSH1 0x32 PUSH1 0x4 MSTORE PUSH1 0x24 DUP8 REVERT JUMPDEST PUSH1 0x40 MLOAD PUSH3 0x461BCD PUSH1 0xE5 SHL DUP2 MSTORE PUSH1 0x20 PUSH1 0x4 DUP3 ADD MSTORE PUSH1 0x1A PUSH1 0x24 DUP3 ADD MSTORE PUSH32 0x41726269747261676520726573756C74656420696E206C6F7373000000000000 PUSH1 0x44 DUP3 ADD MSTORE PUSH1 0x64 SWAP1 REVERT JUMPDEST SWAP1 SWAP8 POP PUSH1 0x20 DUP2 RETURNDATASIZE PUSH1 0x20 GT PUSH2 0xA26 JUMPI JUMPDEST DUP2 PUSH2 0xA12 PUSH1 0x20 SWAP4 DUP4 PUSH2 0x12EB JUMP JUMPDEST DUP2 ADD SUB SLT PUSH2 0xA22 JUMPI MLOAD SWAP7 CODESIZE PUSH2 0x75E JUMP JUMPDEST DUP9 DUP1 REVERT JUMPDEST RETURNDATASIZE SWAP2 POP PUSH2 0xA05 JUMP JUMPDEST PUSH1 0x40 MLOAD RETURNDATASIZE DUP12 DUP3 RETURNDATACOPY RETURNDATASIZE SWAP1 REVERT JUMPDEST PUSH1 0x40 MLOAD PUSH3 0x461BCD PUSH1 0xE5 SHL DUP2 MSTORE PUSH1 0x20 PUSH1 0x4 DUP3 ADD MSTORE PUSH1 0x10 PUSH1 0x24 DUP3 ADD MSTORE PUSH16 0x14D95B1B081CDDD85C0819985A5B1959 PUSH1 0x82 SHL PUSH1 0x44 DUP3 ADD MSTORE PUSH1 0x64 SWAP1 REVERT JUMPDEST PUSH1 0x40 MLOAD PUSH3 0x461BCD PUSH1 0xE5 SHL DUP2 MSTORE PUSH1 0x20 PUSH1 0x4 DUP3 ADD MSTORE PUSH1 0xF PUSH1 0x24 DUP3 ADD MSTORE PUSH15 0x109D5E481CDDD85C0819985A5B1959 PUSH1 0x8A SHL PUSH1 0x44 DUP3 ADD MSTORE PUSH1 0x64 SWAP1 REVERT JUMPDEST SWAP1 POP PUSH1 0x20 DUP2 RETURNDATASIZE PUSH1 0x20 GT PUSH2 0xAD2 JUMPI JUMPDEST DUP2 PUSH2 0xAC3 PUSH1 0x20 SWAP4 DUP4 PUSH2 0x12EB JUMP JUMPDEST DUP2 ADD SUB SLT PUSH2 0xA22 JUMPI MLOAD CODESIZE PUSH2 0x6DB JUMP JUMPDEST RETURNDATASIZE SWAP2 POP PUSH2 0xAB6 JUMP JUMPDEST PUSH4 0x4E487B71 PUSH1 0xE0 SHL DUP9 MSTORE PUSH1 0x32 PUSH1 0x4 MSTORE PUSH1 0x24 DUP9 REVERT JUMPDEST DUP12 DUP1 REVERT JUMPDEST DUP11 DUP1 REVERT JUMPDEST PUSH4 0x4E487B71 PUSH1 0xE0 SHL DUP12 MSTORE PUSH1 0x41 PUSH1 0x4 MSTORE PUSH1 0x24 DUP12 REVERT JUMPDEST DUP10 DUP1 REVERT JUMPDEST PUSH1 0x40 MLOAD PUSH3 0x461BCD PUSH1 0xE5 SHL DUP2 MSTORE PUSH1 0x20 PUSH1 0x4 DUP3 ADD MSTORE PUSH1 0x11 PUSH1 0x24 DUP3 ADD MSTORE PUSH17 0x24B73B30B634B21034B734BA34B0BA37B9 PUSH1 0x79 SHL PUSH1 0x44 DUP3 ADD MSTORE PUSH1 0x64 SWAP1 REVERT JUMPDEST PUSH1 0x40 MLOAD PUSH3 0x461BCD PUSH1 0xE5 SHL DUP2 MSTORE PUSH1 0x20 PUSH1 0x4 DUP3 ADD MSTORE PUSH1 0x1B PUSH1 0x24 DUP3 ADD MSTORE PUSH32 0x43616C6C6572206D757374206265206C656E64696E6720706F6F6C0000000000 PUSH1 0x44 DUP3 ADD MSTORE PUSH1 0x64 SWAP1 REVERT JUMPDEST DUP4 DUP1 REVERT JUMPDEST POP CALLVALUE PUSH2 0x161 JUMPI DUP1 PUSH1 0x3 NOT CALLDATASIZE ADD SLT PUSH2 0x161 JUMPI PUSH1 0x1 SLOAD PUSH1 0x40 MLOAD PUSH1 0x1 PUSH1 0x1 PUSH1 0xA0 SHL SUB SWAP1 SWAP2 AND DUP2 MSTORE PUSH1 0x20 SWAP1 RETURN JUMPDEST POP CALLVALUE PUSH2 0x161 JUMPI DUP1 PUSH1 0x3 NOT CALLDATASIZE ADD SLT PUSH2 0x161 JUMPI PUSH1 0x20 PUSH1 0x40 MLOAD PUSH20 0x94A9D9AC8A22534E3FACA9F4E7F2E2CF85D5E4C8 DUP2 MSTORE RETURN JUMPDEST POP CALLVALUE PUSH2 0x161 JUMPI DUP1 PUSH1 0x3 NOT CALLDATASIZE ADD SLT PUSH2 0x161 JUMPI PUSH1 0x40 MLOAD PUSH32 0x0 PUSH1 0x1 PUSH1 0x1 PUSH1 0xA0 SHL SUB AND DUP2 MSTORE PUSH1 0x20 SWAP1 RETURN JUMPDEST POP CALLVALUE PUSH2 0x161 JUMPI PUSH1 0xA0 CALLDATASIZE PUSH1 0x3 NOT ADD SLT PUSH2 0x161 JUMPI PUSH2 0xC47 PUSH2 0x11A0 JUMP JUMPDEST PUSH1 0x1 PUSH1 0x1 PUSH1 0xA0 SHL SUB SWAP1 DUP3 SWAP1 PUSH1 0x24 CALLDATALOAD DUP4 DUP2 AND SWAP2 SWAP1 DUP3 SWAP1 SUB PUSH2 0xFFC JUMPI PUSH1 0x44 CALLDATALOAD SWAP2 PUSH1 0x1 PUSH1 0x1 PUSH1 0x40 SHL SUB SWAP2 PUSH1 0x64 CALLDATALOAD DUP4 DUP2 GT PUSH2 0x3CE JUMPI PUSH2 0xC86 SWAP1 CALLDATASIZE SWAP1 PUSH1 0x4 ADD PUSH2 0x11CA JUMP JUMPDEST SWAP2 SWAP1 PUSH1 0x84 CALLDATALOAD SWAP5 DUP6 GT PUSH2 0xFF8 JUMPI PUSH2 0xCA1 DUP8 SWAP6 CALLDATASIZE SWAP1 PUSH1 0x4 ADD PUSH2 0x11CA JUMP JUMPDEST SWAP8 SWAP1 SWAP2 PUSH1 0x40 MLOAD SWAP1 PUSH2 0xCB1 DUP3 PUSH2 0x129F JUMP JUMPDEST PUSH1 0x2 DUP3 MSTORE PUSH1 0x20 SWAP11 PUSH1 0x40 CALLDATASIZE DUP14 DUP6 ADD CALLDATACOPY PUSH2 0xCC8 DUP4 PUSH2 0x130C JUMP JUMPDEST SWAP6 AND DUP1 SWAP6 MSTORE DUP7 PUSH2 0xCD7 DUP4 PUSH2 0x132F JUMP JUMPDEST MSTORE DUP3 SWAP6 PUSH2 0xCE5 CALLDATASIZE DUP3 DUP5 PUSH2 0x13B0 JUMP JUMPDEST DUP13 DUP2 MLOAD SWAP2 ADD KECCAK256 PUSH2 0xCF3 PUSH2 0x154F JUMP JUMPDEST DUP1 MLOAD SWAP1 DUP15 ADD KECCAK256 SUB PUSH2 0xF62 JUMPI POP POP PUSH2 0xD2F SWAP3 SWAP4 SWAP5 POP PUSH1 0x40 MLOAD DUP1 SWAP4 DUP2 SWAP3 PUSH4 0xD06CA61F PUSH1 0xE0 SHL DUP4 MSTORE DUP11 PUSH1 0x4 DUP5 ADD MSTORE PUSH1 0x40 PUSH1 0x24 DUP5 ADD MSTORE PUSH1 0x44 DUP4 ADD SWAP1 PUSH2 0x133F JUMP JUMPDEST SUB DUP2 PUSH20 0x7A250D5630B4CF539739DF2C5DACB4C659F2488D GAS STATICCALL DUP1 ISZERO PUSH2 0xF57 JUMPI PUSH2 0xD5F SWAP2 DUP7 SWAP2 PUSH2 0xF43 JUMPI JUMPDEST POP PUSH2 0x132F JUMP JUMPDEST MLOAD SWAP2 JUMPDEST PUSH1 0x40 MLOAD SWAP4 PUSH2 0xD6F DUP6 PUSH2 0x129F JUMP JUMPDEST PUSH1 0x2 DUP6 MSTORE PUSH1 0x40 CALLDATASIZE DUP11 DUP8 ADD CALLDATACOPY PUSH2 0xD83 DUP6 PUSH2 0x130C JUMP JUMPDEST MSTORE PUSH2 0xD8D DUP5 PUSH2 0x132F JUMP JUMPDEST MSTORE DUP4 SWAP6 PUSH2 0xD9B CALLDATASIZE DUP3 DUP5 PUSH2 0x13B0 JUMP JUMPDEST DUP9 DUP2 MLOAD SWAP2 ADD KECCAK256 PUSH2 0xDA9 PUSH2 0x154F JUMP JUMPDEST DUP1 MLOAD SWAP1 DUP11 ADD KECCAK256 SUB PUSH2 0xEAE JUMPI POP POP PUSH2 0xDE4 SWAP4 SWAP5 POP PUSH1 0x40 MLOAD SWAP4 DUP5 SWAP3 DUP4 SWAP3 PUSH4 0xD06CA61F PUSH1 0xE0 SHL DUP5 MSTORE PUSH1 0x4 DUP5 ADD MSTORE PUSH1 0x40 PUSH1 0x24 DUP5 ADD MSTORE PUSH1 0x44 DUP4 ADD SWAP1 PUSH2 0x133F JUMP JUMPDEST SUB DUP2 PUSH20 0x7A250D5630B4CF539739DF2C5DACB4C659F2488D GAS STATICCALL DUP1 ISZERO PUSH2 0xEA3 JUMPI PUSH2 0xE13 SWAP2 DUP6 SWAP2 PUSH2 0xE81 JUMPI POP PUSH2 0x132F JUMP JUMPDEST MLOAD SWAP1 JUMPDEST PUSH1 0x5 DUP2 MUL DUP2 DUP2 DIV PUSH1 0x5 EQ DUP3 ISZERO OR ISZERO PUSH2 0xE6D JUMPI SWAP4 PUSH2 0x2710 PUSH1 0x40 SWAP6 DIV SWAP3 DUP4 SWAP2 PUSH2 0xE3D DUP4 DUP6 PUSH2 0x1428 JUMP JUMPDEST DUP3 GT ISZERO PUSH2 0xE63 JUMPI POP PUSH2 0xE57 SWAP3 PUSH2 0xE52 SWAP2 PUSH2 0x144B JUMP JUMPDEST PUSH2 0x144B JUMP JUMPDEST SWAP2 JUMPDEST DUP4 MLOAD SWAP3 DUP4 MSTORE DUP3 ADD MSTORE RETURN JUMPDEST SWAP3 POP POP POP SWAP2 PUSH2 0xE59 JUMP JUMPDEST PUSH4 0x4E487B71 PUSH1 0xE0 SHL DUP6 MSTORE PUSH1 0x11 PUSH1 0x4 MSTORE PUSH1 0x24 DUP6 REVERT JUMPDEST PUSH2 0xE9D SWAP2 POP RETURNDATASIZE DUP1 DUP8 DUP4 RETURNDATACOPY PUSH2 0xE95 DUP2 DUP4 PUSH2 0x12EB JUMP JUMPDEST DUP2 ADD SWAP1 PUSH2 0x1829 JUMP JUMPDEST CODESIZE PUSH2 0xD59 JUMP JUMPDEST PUSH1 0x40 MLOAD RETURNDATASIZE DUP7 DUP3 RETURNDATACOPY RETURNDATASIZE SWAP1 REVERT JUMPDEST SWAP1 PUSH2 0xEBA SWAP2 CALLDATASIZE SWAP2 PUSH2 0x13B0 JUMP JUMPDEST DUP7 DUP2 MLOAD SWAP2 ADD KECCAK256 PUSH2 0xEC8 PUSH2 0x1574 JUMP JUMPDEST DUP8 DUP2 MLOAD SWAP2 ADD KECCAK256 EQ PUSH2 0xEDC JUMPI JUMPDEST POP POP POP PUSH2 0xE16 JUMP JUMPDEST PUSH2 0xF0A SWAP4 SWAP5 POP PUSH1 0x40 MLOAD SWAP4 DUP5 SWAP3 DUP4 SWAP3 PUSH4 0xD06CA61F PUSH1 0xE0 SHL DUP5 MSTORE PUSH1 0x4 DUP5 ADD MSTORE PUSH1 0x40 PUSH1 0x24 DUP5 ADD MSTORE PUSH1 0x44 DUP4 ADD SWAP1 PUSH2 0x133F JUMP JUMPDEST SUB DUP2 PUSH20 0xD9E1CE17F2641F24AE83637AB66A2CCA9C378B9F GAS STATICCALL DUP1 ISZERO PUSH2 0xEA3 JUMPI PUSH2 0xF39 SWAP2 DUP6 SWAP2 PUSH2 0xE81 JUMPI POP PUSH2 0x132F JUMP JUMPDEST MLOAD SWAP1 DUP4 CODESIZE DUP1 PUSH2 0xED4 JUMP JUMPDEST PUSH2 0xE9D SWAP2 POP RETURNDATASIZE DUP1 DUP9 DUP4 RETURNDATACOPY PUSH2 0xE95 DUP2 DUP4 PUSH2 0x12EB JUMP JUMPDEST PUSH1 0x40 MLOAD RETURNDATASIZE DUP8 DUP3 RETURNDATACOPY RETURNDATASIZE SWAP1 REVERT JUMPDEST SWAP1 PUSH2 0xF71 SWAP2 SWAP6 SWAP5 SWAP6 CALLDATASIZE SWAP2 PUSH2 0x13B0 JUMP JUMPDEST DUP11 DUP2 MLOAD SWAP2 ADD KECCAK256 PUSH2 0xF7F PUSH2 0x1574 JUMP JUMPDEST DUP12 DUP2 MLOAD SWAP2 ADD KECCAK256 EQ PUSH2 0xF92 JUMPI JUMPDEST POP POP PUSH2 0xD62 JUMP JUMPDEST PUSH2 0xFC0 SWAP3 SWAP5 POP PUSH1 0x40 MLOAD DUP1 SWAP4 DUP2 SWAP3 PUSH4 0xD06CA61F PUSH1 0xE0 SHL DUP4 MSTORE DUP11 PUSH1 0x4 DUP5 ADD MSTORE PUSH1 0x40 PUSH1 0x24 DUP5 ADD MSTORE PUSH1 0x44 DUP4 ADD SWAP1 PUSH2 0x133F JUMP JUMPDEST SUB DUP2 PUSH20 0xD9E1CE17F2641F24AE83637AB66A2CCA9C378B9F GAS STATICCALL DUP1 ISZERO PUSH2 0xF57 JUMPI PUSH2 0xFEF SWAP2 DUP7 SWAP2 PUSH2 0xF43 JUMPI POP PUSH2 0x132F JUMP JUMPDEST MLOAD SWAP2 DUP5 CODESIZE PUSH2 0xF8B JUMP JUMPDEST DUP7 DUP1 REVERT JUMPDEST DUP3 DUP1 REVERT JUMPDEST POP CALLVALUE PUSH2 0x161 JUMPI DUP1 PUSH1 0x3 NOT CALLDATASIZE ADD SLT PUSH2 0x161 JUMPI PUSH2 0x1019 PUSH2 0x1227 JUMP JUMPDEST PUSH1 0x1 DUP1 SLOAD PUSH1 0x1 PUSH1 0x1 PUSH1 0xA0 SHL SUB NOT DUP2 AND SWAP1 SWAP2 SSTORE DUP2 SWAP1 PUSH1 0x1 PUSH1 0x1 PUSH1 0xA0 SHL SUB AND PUSH32 0x8BE0079C531659141344CD1FD0A4F28419497F9722A3DAAFE3B4186F6B6457E0 DUP3 DUP1 LOG3 DUP1 RETURN JUMPDEST POP CALLVALUE PUSH2 0x161 JUMPI DUP1 PUSH1 0x3 NOT CALLDATASIZE ADD SLT PUSH2 0x161 JUMPI PUSH1 0x20 PUSH1 0x40 MLOAD PUSH20 0xD9E1CE17F2641F24AE83637AB66A2CCA9C378B9F DUP2 MSTORE RETURN JUMPDEST POP CALLVALUE PUSH2 0x161 JUMPI PUSH1 0x20 DUP1 PUSH1 0x3 NOT CALLDATASIZE ADD SLT PUSH2 0x3D2 JUMPI PUSH2 0x10A7 PUSH2 0x11A0 JUMP JUMPDEST SWAP1 PUSH2 0x10B0 PUSH2 0x1227 JUMP JUMPDEST PUSH1 0x40 MLOAD PUSH4 0x70A08231 PUSH1 0xE0 SHL DUP2 MSTORE ADDRESS PUSH1 0x4 DUP3 ADD MSTORE SWAP2 PUSH1 0x1 PUSH1 0x1 PUSH1 0xA0 SHL SUB SWAP1 DUP2 AND SWAP2 SWAP1 DUP2 DUP5 PUSH1 0x24 DUP2 DUP7 GAS STATICCALL SWAP4 DUP5 ISZERO PUSH2 0xF57 JUMPI DUP6 SWAP5 PUSH2 0x116D JUMPI JUMPDEST POP DUP4 ISZERO PUSH2 0x112F JUMPI SWAP1 DUP2 PUSH2 0x1120 DUP6 PUSH32 0xE6FEE221BB8A85476104E6B67AE7B66010866C78F60F8CE4946F80DA6CE04DF0 SWAP5 PUSH1 0x1 SLOAD AND DUP7 PUSH2 0x14B0 JUMP JUMPDEST PUSH1 0x1 SLOAD AND SWAP4 PUSH1 0x40 MLOAD SWAP1 DUP2 MSTORE LOG3 DUP1 RETURN JUMPDEST PUSH1 0x40 MLOAD PUSH3 0x461BCD PUSH1 0xE5 SHL DUP2 MSTORE PUSH1 0x4 DUP2 ADD DUP4 SWAP1 MSTORE PUSH1 0x16 PUSH1 0x24 DUP3 ADD MSTORE PUSH22 0x4E6F2062616C616E636520746F207769746864726177 PUSH1 0x50 SHL PUSH1 0x44 DUP3 ADD MSTORE PUSH1 0x64 SWAP1 REVERT JUMPDEST SWAP1 SWAP4 POP DUP2 DUP2 DUP2 RETURNDATASIZE DUP4 GT PUSH2 0x1199 JUMPI JUMPDEST PUSH2 0x1185 DUP2 DUP4 PUSH2 0x12EB JUMP JUMPDEST DUP2 ADD SUB SLT PUSH2 0x1195 JUMPI MLOAD SWAP3 CODESIZE PUSH2 0x10E7 JUMP JUMPDEST DUP5 DUP1 REVERT JUMPDEST POP RETURNDATASIZE PUSH2 0x117B JUMP JUMPDEST PUSH1 0x4 CALLDATALOAD SWAP1 PUSH1 0x1 PUSH1 0x1 PUSH1 0xA0 SHL SUB DUP3 AND DUP3 SUB PUSH2 0x149 JUMPI JUMP JUMPDEST CALLDATALOAD SWAP1 PUSH1 0x1 PUSH1 0x1 PUSH1 0xA0 SHL SUB DUP3 AND DUP3 SUB PUSH2 0x149 JUMPI JUMP JUMPDEST SWAP2 DUP2 PUSH1 0x1F DUP5 ADD SLT ISZERO PUSH2 0x149 JUMPI DUP3 CALLDATALOAD SWAP2 PUSH1 0x1 PUSH1 0x1 PUSH1 0x40 SHL SUB DUP4 GT PUSH2 0x149 JUMPI PUSH1 0x20 DUP4 DUP2 DUP7 ADD SWAP6 ADD ADD GT PUSH2 0x149 JUMPI JUMP JUMPDEST SWAP2 DUP2 PUSH1 0x1F DUP5 ADD SLT ISZERO PUSH2 0x149 JUMPI DUP3 CALLDATALOAD SWAP2 PUSH1 0x1 PUSH1 0x1 PUSH1 0x40 SHL SUB DUP4 GT PUSH2 0x149 JUMPI PUSH1 0x20 DUP1 DUP6 ADD SWAP5 DUP5 PUSH1 0x5 SHL ADD ADD GT PUSH2 0x149 JUMPI JUMP JUMPDEST PUSH1 0x1 SLOAD PUSH1 0x1 PUSH1 0x1 PUSH1 0xA0 SHL SUB AND CALLER SUB PUSH2 0x123B JUMPI JUMP JUMPDEST PUSH1 0x40 MLOAD PUSH4 0x118CDAA7 PUSH1 0xE0 SHL DUP2 MSTORE CALLER PUSH1 0x4 DUP3 ADD MSTORE PUSH1 0x24 SWAP1 REVERT JUMPDEST ISZERO PUSH2 0x125A JUMPI JUMP JUMPDEST PUSH1 0x40 MLOAD PUSH3 0x461BCD PUSH1 0xE5 SHL DUP2 MSTORE PUSH1 0x20 PUSH1 0x4 DUP3 ADD MSTORE PUSH1 0x1D PUSH1 0x24 DUP3 ADD MSTORE PUSH32 0x416D6F756E74206D7573742062652067726561746572207468616E2030000000 PUSH1 0x44 DUP3 ADD MSTORE PUSH1 0x64 SWAP1 REVERT JUMPDEST PUSH1 0x60 DUP2 ADD SWAP1 DUP2 LT PUSH1 0x1 PUSH1 0x1 PUSH1 0x40 SHL SUB DUP3 GT OR PUSH2 0x12BA JUMPI PUSH1 0x40 MSTORE JUMP JUMPDEST PUSH4 0x4E487B71 PUSH1 0xE0 SHL PUSH1 0x0 MSTORE PUSH1 0x41 PUSH1 0x4 MSTORE PUSH1 0x24 PUSH1 0x0 REVERT JUMPDEST PUSH1 0x40 DUP2 ADD SWAP1 DUP2 LT PUSH1 0x1 PUSH1 0x1 PUSH1 0x40 SHL SUB DUP3 GT OR PUSH2 0x12BA JUMPI PUSH1 0x40 MSTORE JUMP JUMPDEST SWAP1 PUSH1 0x1F DUP1 NOT SWAP2 ADD AND DUP2 ADD SWAP1 DUP2 LT PUSH1 0x1 PUSH1 0x1 PUSH1 0x40 SHL SUB DUP3 GT OR PUSH2 0x12BA JUMPI PUSH1 0x40 MSTORE JUMP JUMPDEST DUP1 MLOAD ISZERO PUSH2 0x1319 JUMPI PUSH1 0x20 ADD SWAP1 JUMP JUMPDEST PUSH4 0x4E487B71 PUSH1 0xE0 SHL PUSH1 0x0 MSTORE PUSH1 0x32 PUSH1 0x4 MSTORE PUSH1 0x24 PUSH1 0x0 REVERT JUMPDEST DUP1 MLOAD PUSH1 0x1 LT ISZERO PUSH2 0x1319 JUMPI PUSH1 0x40 ADD SWAP1 JUMP JUMPDEST SWAP1 DUP2 MLOAD DUP1 DUP3 MSTORE PUSH1 0x20 DUP1 DUP1 SWAP4 ADD SWAP4 ADD SWAP2 PUSH1 0x0 JUMPDEST DUP3 DUP2 LT PUSH2 0x135F JUMPI POP POP POP POP SWAP1 JUMP JUMPDEST DUP4 MLOAD PUSH1 0x1 PUSH1 0x1 PUSH1 0xA0 SHL SUB AND DUP6 MSTORE SWAP4 DUP2 ADD SWAP4 SWAP3 DUP2 ADD SWAP3 PUSH1 0x1 ADD PUSH2 0x1351 JUMP JUMPDEST SWAP1 DUP2 MLOAD DUP1 DUP3 MSTORE PUSH1 0x20 DUP1 DUP1 SWAP4 ADD SWAP4 ADD SWAP2 PUSH1 0x0 JUMPDEST DUP3 DUP2 LT PUSH2 0x139C JUMPI POP POP POP POP SWAP1 JUMP JUMPDEST DUP4 MLOAD DUP6 MSTORE SWAP4 DUP2 ADD SWAP4 SWAP3 DUP2 ADD SWAP3 PUSH1 0x1 ADD PUSH2 0x138E JUMP JUMPDEST SWAP3 SWAP2 SWAP3 PUSH1 0x1 PUSH1 0x1 PUSH1 0x40 SHL SUB DUP3 GT PUSH2 0x12BA JUMPI PUSH1 0x40 MLOAD SWAP2 PUSH2 0x13D9 PUSH1 0x1F DUP3 ADD PUSH1 0x1F NOT AND PUSH1 0x20 ADD DUP5 PUSH2 0x12EB JUMP JUMPDEST DUP3 SWAP5 DUP2 DUP5 MSTORE DUP2 DUP4 ADD GT PUSH2 0x149 JUMPI DUP3 DUP2 PUSH1 0x20 SWAP4 DUP5 PUSH1 0x0 SWAP7 ADD CALLDATACOPY ADD ADD MSTORE JUMP JUMPDEST SWAP1 DUP1 PUSH1 0x1F DUP4 ADD SLT ISZERO PUSH2 0x149 JUMPI DUP2 PUSH1 0x20 PUSH2 0x1411 SWAP4 CALLDATALOAD SWAP2 ADD PUSH2 0x13B0 JUMP JUMPDEST SWAP1 JUMP JUMPDEST CALLDATALOAD PUSH1 0x1 PUSH1 0x1 PUSH1 0xA0 SHL SUB DUP2 AND DUP2 SUB PUSH2 0x149 JUMPI SWAP1 JUMP JUMPDEST SWAP2 SWAP1 DUP3 ADD DUP1 SWAP3 GT PUSH2 0x1435 JUMPI JUMP JUMPDEST PUSH4 0x4E487B71 PUSH1 0xE0 SHL PUSH1 0x0 MSTORE PUSH1 0x11 PUSH1 0x4 MSTORE PUSH1 0x24 PUSH1 0x0 REVERT JUMPDEST SWAP2 SWAP1 DUP3 SUB SWAP2 DUP3 GT PUSH2 0x1435 JUMPI JUMP JUMPDEST SWAP1 DUP2 PUSH1 0x20 SWAP2 SUB SLT PUSH2 0x149 JUMPI MLOAD DUP1 ISZERO ISZERO DUP2 SUB PUSH2 0x149 JUMPI SWAP1 JUMP JUMPDEST SWAP2 SWAP1 DUP3 MLOAD SWAP3 DUP4 DUP3 MSTORE PUSH1 0x0 JUMPDEST DUP5 DUP2 LT PUSH2 0x149C JUMPI POP POP DUP3 PUSH1 0x0 PUSH1 0x20 DUP1 SWAP5 SWAP6 DUP5 ADD ADD MSTORE PUSH1 0x1F DUP1 NOT SWAP2 ADD AND ADD ADD SWAP1 JUMP JUMPDEST PUSH1 0x20 DUP2 DUP4 ADD DUP2 ADD MLOAD DUP5 DUP4 ADD DUP3 ADD MSTORE ADD PUSH2 0x147B JUMP JUMPDEST PUSH1 0x40 MLOAD PUSH4 0xA9059CBB PUSH1 0xE0 SHL PUSH1 0x20 DUP1 DUP4 ADD SWAP2 DUP3 MSTORE PUSH1 0x1 PUSH1 0x1 PUSH1 0xA0 SHL SUB SWAP5 SWAP1 SWAP5 AND PUSH1 0x24 DUP4 ADD MSTORE PUSH1 0x44 DUP1 DUP4 ADD SWAP6 SWAP1 SWAP6 MSTORE SWAP4 DUP2 MSTORE SWAP1 SWAP3 PUSH1 0x0 SWAP2 PUSH2 0x14F0 PUSH1 0x64 DUP3 PUSH2 0x12EB JUMP JUMPDEST MLOAD SWAP1 DUP3 DUP6 GAS CALL ISZERO PUSH2 0x1543 JUMPI PUSH1 0x0 MLOAD RETURNDATASIZE PUSH2 0x153A JUMPI POP PUSH1 0x1 PUSH1 0x1 PUSH1 0xA0 SHL SUB DUP2 AND EXTCODESIZE ISZERO JUMPDEST PUSH2 0x1518 JUMPI POP JUMP JUMPDEST PUSH1 0x40 MLOAD PUSH4 0x5274AFE7 PUSH1 0xE0 SHL DUP2 MSTORE PUSH1 0x1 PUSH1 0x1 PUSH1 0xA0 SHL SUB SWAP1 SWAP2 AND PUSH1 0x4 DUP3 ADD MSTORE PUSH1 0x24 SWAP1 REVERT JUMPDEST PUSH1 0x1 EQ ISZERO PUSH2 0x1511 JUMP JUMPDEST PUSH1 0x40 MLOAD RETURNDATASIZE PUSH1 0x0 DUP3 RETURNDATACOPY RETURNDATASIZE SWAP1 REVERT JUMPDEST PUSH1 0x40 MLOAD SWAP1 PUSH2 0x155C DUP3 PUSH2 0x12D0 JUMP JUMPDEST PUSH1 0x9 DUP3 MSTORE PUSH9 0x2AB734B9BBB0B82B19 PUSH1 0xB9 SHL PUSH1 0x20 DUP4 ADD MSTORE JUMP JUMPDEST PUSH1 0x40 MLOAD SWAP1 PUSH2 0x1581 DUP3 PUSH2 0x12D0 JUMP JUMPDEST PUSH1 0x9 DUP3 MSTORE PUSH9 0x53757368695377617 PUSH1 0xBC SHL PUSH1 0x20 DUP4 ADD MSTORE JUMP JUMPDEST SWAP4 SWAP3 SWAP1 SWAP2 PUSH2 0x15A8 DUP2 ISZERO ISZERO PUSH2 0x1253 JUMP JUMPDEST PUSH1 0x40 SWAP3 DUP4 MLOAD PUSH2 0x15B6 DUP2 PUSH2 0x129F JUMP JUMPDEST PUSH1 0x2 DUP2 MSTORE PUSH1 0x20 SWAP2 DUP6 CALLDATASIZE DUP5 DUP5 ADD CALLDATACOPY PUSH2 0x15CC DUP3 PUSH2 0x130C JUMP JUMPDEST PUSH1 0x1 PUSH1 0x1 PUSH1 0xA0 SHL SUB SWAP9 DUP10 AND SWAP1 DUP2 SWAP1 MSTORE SWAP8 PUSH2 0x15E5 DUP4 PUSH2 0x132F JUMP JUMPDEST SWAP2 AND SWAP1 MSTORE PUSH2 0x12C TIMESTAMP ADD SWAP4 DUP5 TIMESTAMP GT PUSH2 0x1435 JUMPI DUP1 MLOAD SWAP1 DUP4 DUP2 ADD SWAP2 DUP3 KECCAK256 PUSH2 0x1607 PUSH2 0x154F JUMP JUMPDEST DUP1 MLOAD SWAP1 DUP7 ADD KECCAK256 SUB PUSH2 0x176F JUMPI POP POP DUP5 MLOAD SWAP2 PUSH4 0x95EA7B3 PUSH1 0xE0 SHL DUP4 MSTORE PUSH20 0x7A250D5630B4CF539739DF2C5DACB4C659F2488D SWAP3 DUP4 PUSH1 0x4 DUP3 ADD MSTORE DUP5 PUSH1 0x24 DUP3 ADD MSTORE DUP2 DUP2 PUSH1 0x44 DUP2 PUSH1 0x0 DUP1 SWAP14 GAS CALL DUP1 ISZERO PUSH2 0x1765 JUMPI PUSH2 0x1747 JUMPI JUMPDEST POP POP DUP5 MLOAD PUSH4 0xD06CA61F PUSH1 0xE0 SHL DUP2 MSTORE DUP4 PUSH1 0x4 DUP3 ADD MSTORE DUP6 PUSH1 0x24 DUP3 ADD MSTORE DUP8 DUP2 DUP1 PUSH2 0x1683 PUSH1 0x44 DUP3 ADD DUP7 PUSH2 0x133F JUMP JUMPDEST SUB DUP2 DUP7 GAS STATICCALL SWAP1 DUP2 ISZERO PUSH2 0x173D JUMPI SWAP1 PUSH2 0x16A0 SWAP2 DUP10 SWAP2 PUSH2 0x1729 JUMPI POP PUSH2 0x132F JUMP JUMPDEST MLOAD SWAP3 PUSH2 0x3E3 SWAP4 DUP5 DUP2 MUL SWAP5 DUP2 DUP7 DIV EQ SWAP1 ISZERO OR ISZERO PUSH2 0x944 JUMPI SWAP1 DUP8 DUP1 SWAP5 SWAP4 SWAP3 PUSH2 0x16E2 DUP9 MLOAD SWAP8 DUP9 SWAP7 DUP8 SWAP6 DUP7 SWAP5 PUSH4 0x38ED1739 PUSH1 0xE0 SHL DUP7 MSTORE PUSH2 0x3E8 ADDRESS SWAP4 DIV SWAP1 PUSH1 0x4 DUP8 ADD PUSH2 0x18A4 JUMP JUMPDEST SUB SWAP3 GAS CALL SWAP2 DUP3 ISZERO PUSH2 0x1720 JUMPI POP DUP4 PUSH2 0x1701 SWAP4 SWAP5 SWAP3 PUSH2 0x1705 JUMPI JUMPDEST POP POP PUSH2 0x132F JUMP JUMPDEST MLOAD SWAP1 JUMP JUMPDEST PUSH2 0x1719 SWAP3 POP RETURNDATASIZE DUP1 SWAP2 DUP4 RETURNDATACOPY PUSH2 0xE95 DUP2 DUP4 PUSH2 0x12EB JUMP JUMPDEST CODESIZE DUP1 PUSH2 0x16FA JUMP JUMPDEST MLOAD RETURNDATASIZE DUP6 DUP3 RETURNDATACOPY RETURNDATASIZE SWAP1 REVERT JUMPDEST PUSH2 0xE9D SWAP2 POP RETURNDATASIZE DUP1 DUP12 DUP4 RETURNDATACOPY PUSH2 0xE95 DUP2 DUP4 PUSH2 0x12EB JUMP JUMPDEST DUP7 MLOAD RETURNDATASIZE DUP11 DUP3 RETURNDATACOPY RETURNDATASIZE SWAP1 REVERT JUMPDEST DUP2 PUSH2 0x175D SWAP3 SWAP1 RETURNDATASIZE LT PUSH2 0x8D8 JUMPI PUSH2 0x8C9 DUP2 DUP4 PUSH2 0x12EB JUMP JUMPDEST POP CODESIZE DUP1 PUSH2 0x1659 JUMP JUMPDEST DUP8 MLOAD RETURNDATASIZE DUP12 DUP3 RETURNDATACOPY RETURNDATASIZE SWAP1 REVERT JUMPDEST MLOAD SWAP1 KECCAK256 PUSH2 0x177A PUSH2 0x1574 JUMP JUMPDEST DUP1 MLOAD SWAP1 DUP5 ADD KECCAK256 SUB PUSH2 0x17F3 JUMPI DUP5 MLOAD SWAP2 PUSH4 0x95EA7B3 PUSH1 0xE0 SHL DUP4 MSTORE PUSH20 0xD9E1CE17F2641F24AE83637AB66A2CCA9C378B9F SWAP3 DUP4 PUSH1 0x4 DUP3 ADD MSTORE DUP5 PUSH1 0x24 DUP3 ADD MSTORE DUP2 DUP2 PUSH1 0x44 DUP2 PUSH1 0x0 DUP1 SWAP14 GAS CALL DUP1 ISZERO PUSH2 0x1765 JUMPI PUSH2 0x1747 JUMPI POP POP DUP5 MLOAD PUSH4 0xD06CA61F PUSH1 0xE0 SHL DUP2 MSTORE DUP4 PUSH1 0x4 DUP3 ADD MSTORE DUP6 PUSH1 0x24 DUP3 ADD MSTORE DUP8 DUP2 DUP1 PUSH2 0x1683 PUSH1 0x44 DUP3 ADD DUP7 PUSH2 0x133F JUMP JUMPDEST DUP5 MLOAD PUSH3 0x461BCD PUSH1 0xE5 SHL DUP2 MSTORE PUSH1 0x4 DUP2 ADD DUP4 SWAP1 MSTORE PUSH1 0xF PUSH1 0x24 DUP3 ADD MSTORE PUSH15 0xAADCE6EAE0E0DEE4E8CAC840888AB PUSH1 0x8B SHL PUSH1 0x44 DUP3 ADD MSTORE PUSH1 0x64 SWAP1 REVERT JUMPDEST SWAP1 PUSH1 0x20 SWAP1 DUP2 DUP4 DUP3 SUB SLT PUSH2 0x149 JUMPI DUP3 MLOAD PUSH1 0x1 PUSH1 0x1 PUSH1 0x40 SHL SUB SWAP4 DUP5 DUP3 GT PUSH2 0x149 JUMPI ADD DUP2 PUSH1 0x1F DUP3 ADD SLT ISZERO PUSH2 0x149 JUMPI DUP1 MLOAD SWAP4 DUP5 GT PUSH2 0x12BA JUMPI DUP4 PUSH1 0x5 SHL SWAP1 PUSH1 0x40 MLOAD SWAP5 PUSH2 0x1872 DUP6 DUP5 ADD DUP8 PUSH2 0x12EB JUMP JUMPDEST DUP6 MSTORE DUP4 DUP1 DUP7 ADD SWAP3 DUP3 ADD ADD SWAP3 DUP4 GT PUSH2 0x149 JUMPI DUP4 ADD SWAP1 JUMPDEST DUP3 DUP3 LT PUSH2 0x1895 JUMPI POP POP POP POP SWAP1 JUMP JUMPDEST DUP2 MLOAD DUP2 MSTORE SWAP1 DUP4 ADD SWAP1 DUP4 ADD PUSH2 0x1887 JUMP JUMPDEST SWAP2 SWAP3 PUSH1 0x80 SWAP4 PUSH2 0x18C9 SWAP3 SWAP8 SWAP7 SWAP6 SWAP8 DUP5 MSTORE PUSH1 0x20 DUP5 ADD MSTORE PUSH1 0xA0 PUSH1 0x40 DUP5 ADD MSTORE PUSH1 0xA0 DUP4 ADD SWAP1 PUSH2 0x133F JUMP JUMPDEST PUSH1 0x1 PUSH1 0x1 PUSH1 0xA0 SHL SUB SWAP1 SWAP6 AND PUSH1 0x60 DUP3 ADD MSTORE ADD MSTORE JUMP INVALID LOG2 PUSH5 0x6970667358 0x22 SLT KECCAK256 0xDF DUP12 0xE7 DUP4 SWAP1 0x2E 0xF8 0x4F 0xC1 SGT 0xE8 0x4A CALLDATALOAD DUP1 POP AND GASLIMIT 0xE5 PUSH12 0x41B76E654EC17C38FD287CEA 0x2F PUSH5 0x736F6C6343 STOP ADDMOD EQ STOP CALLER "},"methodIdentifiers":{"FEE_BPS()":"bf333f2c","FEE_COLLECTOR()":"7f660b01","LENDING_POOL()":"b4dcfc77","SUSHISWAP_ROUTER()":"277754ed","UNISWAP_V2_ROUTER()":"a82ed9ec","USDC()":"89a30271","WETH()":"ad5c4648","emergencyWithdraw(address,uint256)":"95ccea67","estimateArbitrageProfit(address,address,uint256,string,string)":"73fb0e72","executeOperation(address[],uint256[],uint256[],address,bytes)":"920f5c84","getBalance(address)":"f8b2cb4f","owner()":"8da5cb5b","renounceOwnership()":"715018a6","startArbitrage(address,uint256,bytes)":"cca2e3cc","transferOwnership(address)":"f2fde38b","withdrawProfit(address)":"24e26241"}}}}}